:020000040800F2
:10000000008000209D4A0008CD110008CF11000893
:10001000D1110008D3110008D5110008000000001C
:10002000000000000000000000000000D7110008E0
:10003000D911000800000000DB110008DD110008E4
:10004000ED4A0008ED4A0008ED4A0008ED4A0008B4
:10005000ED4A0008ED4A0008ED4A0008ED4A0008A4
:10006000ED4A0008ED4A0008ED4A0008ED4A000894
:10007000ED4A0008ED4A0008ED4A0008ED4A000884
:10008000ED4A0008ED4A0008ED4A000800000000B3
:10009000000000000000000000000000ED4A000821
:1000A000ED4A0008ED4A0008ED4A0008ED4A000854
:1000B000000000000000000000000000ED4A000801
:1000C000ED4A0008ED4A0008ED4A0008ED4A000834
:1000D000ED4A0008ED4A0008ED4A00080000000063
:1000E000ED4A0008ED4A0008000000000000000092
:1000F000000000000000000000000000ED4A0008C1
:100100000000000000000000ED4A000800000000B0
:100110000000000000000000ED4A000800000000A0
:10012000ED4A0008ED4A0008ED4A0008ED4A0008D3
:10013000ED4A000800000000000000000000000080
:1001400000000000000000000000000000000000AF
:10015000ED4A0008ED4A0008ED4A0008ED4A0008A3
:10016000000000000000000000000000000000008F
:10017000000000000000000000000000000000007F
:10018000ED4A0008ED4A00080000000000000000F1
:1001900000000000ED4A0008000000000000000020
:1001A000000000000000000000000000000000004F
:1001B000000000000000000000000000ED4A000800
:0801C000ED4A0008ED4A0008B9
:1001D00010B5054C237833B9044B13B10448AFF381
:1001E00000800123237010BDF401002000000000F6
:1001F000B88C000808B5034B1BB103490348AFF3A3
:10020000008008BD00000000F8010020B88C000844
:10021000034613F8012B002AFBD1181A0138704746
:1002200001F0FF01102A2BDB10F0070F08D010F8A7
:10023000013B013A8B422DD010F0070F42B3F6D1AB
:10024000F0B441EA012141EA014122F007047FF0C4
:1002500000070023F0E80256083C85EA010586EA1B
:10026000010685FA47F5A3FA87F586FA47F6A5FA57
:1002700087F68EB9EED1F0BC01F0FF0102F0070263
:1002800032B110F8013B013A83EA010313B1F8D10E
:100290000020704701387047002D06BF35460338EF
:1002A000073815F0010F07D1013015F4807F02BF28
:1002B000013015F4C03F0130F0BC0138704700BF79
:1002C00081F0004102E000BF83F0004330B54FEA07
:1002D00041044FEA430594EA050F08BF90EA020F74
:1002E0001FBF54EA000C55EA020C7FEA645C7FEA07
:1002F000655C00F0E2804FEA5454D4EB5555B8BF2A
:100300006D420CDD2C4480EA020281EA030382EA9A
:10031000000083EA010180EA020281EA0303362D2C
:1003200088BF30BD11F0004F4FEA01314FF4801CFF
:100330004CEA113102D0404261EB410113F0004F11
:100340004FEA03334CEA133302D0524263EB4303C8
:1003500094EA050F00F0A780A4F10104D5F1200E66
:100360000DDB02FA0EFC22FA05F2801841F10001C1
:1003700003FA0EF2801843FA05F359410EE0A5F195
:1003800020050EF1200E012A03FA0EFC28BF4CF0C6
:10039000020C43FA05F3C01851EBE37101F000457C
:1003A00007D54FF0000EDCF1000C7EEB00006EEB89
:1003B0000101B1F5801F1BD3B1F5001F0CD3490813
:1003C0005FEA30004FEA3C0C04F101044FEA44526A
:1003D00012F5800F80F09A80BCF1004F08BF5FEAF1
:1003E000500C50F1000041EB045141EA050130BDD1
:1003F0005FEA4C0C404141EB0101013C28BFB1F5E3
:10040000801FE9D291F0000F04BF01460020B1FA2D
:1004100081F308BF2033A3F10B03B3F120020CDA00
:100420000C3208DD02F1140CC2F10C0201FA0CF0DE
:1004300021FA02F10CE002F11402D8BFC2F1200C43
:1004400001FA02F120FA0CFCDCBF41EA0C019040F9
:10045000E41AA2BF01EB0451294330BD6FEA040442
:100460001F3C1CDA0C340EDC04F11404C4F120022D
:1004700020FA04F001FA02F340EA030021FA04F33F
:1004800045EA030130BDC4F10C04C4F1200220FA96
:1004900002F001FA04F340EA0300294630BD21FAD4
:1004A00004F0294630BD94F0000F83F4801306BF9A
:1004B00081F480110134013D4EE77FEA645C18BF8E
:1004C0007FEA655C29D094EA050F08BF90EA020F25
:1004D00005D054EA000C04BF1946104630BD91EA1D
:1004E000030F1EBF0021002030BD5FEA545C05D120
:1004F0004000494128BF41F0004130BD14F580045F
:100500003CBF01F5801130BD01F0004545F0FE41D2
:1005100041F470014FF0000030BD7FEA645C1ABF07
:10052000194610467FEA655C1CBF0B46024650EA3E
:10053000013406BF52EA033591EA030F41F400216A
:1005400030BD00BF90F0000F04BF0021704730B5F0
:100550004FF4806404F132044FF000054FF00001C5
:1005600050E700BF90F0000F04BF0021704730B586
:100570004FF4806404F1320410F0004548BF40425B
:100580004FF000013EE700BF42004FEAE2014FEAB0
:1005900031014FEA02701FBF12F07F4393F07F4F8B
:1005A00081F06051704732F07F4208BF704793F08E
:1005B0007F4F04BF41F40021704730B54FF46074A1
:1005C00001F0004521F000411CE700BF50EA0102A4
:1005D00008BF704730B54FF000050AE050EA01024D
:1005E00008BF704730B511F0004502D5404261EBBD
:1005F00041014FF4806404F132045FEA915C3FF4FE
:10060000D8AE4FF003025FEADC0C18BF03325FEA9A
:10061000DC0C18BF033202EBDC02C2F1200300FA4B
:1006200003FC20FA02F001FA03FE40EA0E0021FA70
:1006300002F11444BDE600BF70B54FF0FF0C4CF45E
:10064000E06C1CEA11541DBF1CEA135594EA0C0F10
:1006500095EA0C0F00F0DEF82C4481EA030621EA4B
:100660004C5123EA4C5350EA013518BF52EA033586
:1006700041F4801143F4801338D0A0FB02CE4FF038
:100680000005E1FB02E506F00042E0FB03E54FF068
:100690000006E1FB03569CF0000F18BF4EF0010E60
:1006A000A4F1FF04B6F5007F64F5407404D25FEA5C
:1006B0004E0E6D4146EB060642EAC62141EA55510F
:1006C0004FEAC52040EA5E504FEACE2EB4F1FD0C51
:1006D00088BFBCF5E06F1ED8BEF1004F08BF5FEACF
:1006E000500E50F1000041EB045170BD06F0004681
:1006F00046EA010140EA020081EA0301B4EB5C042E
:10070000C2BFD4EB0C0541EA045170BD41F4801125
:100710004FF0000E013C00F3AB8014F1360FDEBF4A
:10072000002001F0004170BDC4F10004203C35DA26
:100730000C341BDC04F11404C4F1200500FA05F3A9
:1007400020FA04F001FA05F240EA020001F000424A
:1007500021F0004110EBD37021FA04F642EB0601C0
:100760005EEA430E08BF20EAD37070BDC4F10C04EA
:10077000C4F1200500FA04F320FA05F001FA04F2AE
:1007800040EA020001F0004110EBD37041F100019A
:100790005EEA430E08BF20EAD37070BDC4F12005A5
:1007A00000FA05F24EEA020E20FA04F301FA05F20D
:1007B00043EA020321FA04F001F0004121FA04F2B5
:1007C00020EA020000EBD3705EEA430E08BF20EA85
:1007D000D37070BD94F0000F0FD101F000464000BF
:1007E00041EB010111F4801F08BF013CF7D041EA41
:1007F000060195F0000F18BF704703F00046520045
:1008000043EB030313F4801F08BF013DF7D043EA15
:100810000603704794EA0C0F0CEA135518BF95EACB
:100820000C0F0CD050EA410618BF52EA4306D1D152
:1008300081EA030101F000414FF0000070BD50EA71
:10084000410606BF1046194652EA430619D094EAFB
:100850000C0F02D150EA013613D195EA0C0F05D1E5
:1008600052EA03361CBF104619460AD181EA030139
:1008700001F0004141F0FE4141F470014FF00000F1
:1008800070BD41F0FE4141F4780170BD70B54FF08C
:10089000FF0C4CF4E06C1CEA11541DBF1CEA13550C
:1008A00094EA0C0F95EA0C0F00F0A7F8A4EB0504EE
:1008B00081EA030E52EA03354FEA013100F08880E5
:1008C0004FEA03334FF0805545EA131343EA1263AE
:1008D0004FEA022245EA111545EA10654FEA002663
:1008E0000EF000419D4208BF964244F1FD0404F51C
:1008F000407402D25B084FEA3202B61A65EB030578
:100900005B084FEA32024FF480104FF4002CB6EB34
:10091000020E75EB030E22BFB61A754640EA0C00B4
:100920005B084FEA3202B6EB020E75EB030E22BFF4
:10093000B61A754640EA5C005B084FEA3202B6EB35
:10094000020E75EB030E22BFB61A754640EA9C00F4
:100950005B084FEA3202B6EB020E75EB030E22BFC4
:10096000B61A754640EADC0055EA060E18D04FEA82
:10097000051545EA16754FEA06164FEAC30343EA22
:1009800052734FEAC2025FEA1C1CC0D111F4801FEF
:100990000BD141EA00014FF000004FF0004CB6E7E8
:1009A00011F4801F04BF01430020B4F1FD0C88BF87
:1009B000BCF5E06F3FF6AFAEB5EB030C04BFB6EB92
:1009C000020C5FEA500C50F1000041EB045170BD85
:1009D0000EF0004E4EEA113114EB5C04C2BFD4EBB2
:1009E0000C0541EA045170BD41F480114FF0000E36
:1009F000013C90E645EA060E8DE60CEA135594EAB2
:100A00000C0F08BF95EA0C0F3FF43BAF94EA0C0FB4
:100A10000AD150EA01347FF434AF95EA0C0F7FF429
:100A200025AF104619462CE795EA0C0F06D152EA7D
:100A300003353FF4FDAE1046194622E750EA410661
:100A400018BF52EA43067FF4C5AE50EA41047FF472
:100A50000DAF52EA43057FF4EBAE12E74FF0FF3CD7
:100A600006E000BF4FF0010C02E000BF4FF0010CA8
:100A70004DF804CD4FEA410C7FEA6C5C4FEA430C21
:100A800018BF7FEA6C5C1BD001B050EA410C0CBF70
:100A900052EA430C91EA030F02BF90EA020F0020D2
:100AA000704710F1000F91EA030F58BF994208BF39
:100AB00090422CBFD8176FEAE37040F001007047F6
:100AC0004FEA410C7FEA6C5C02D150EA013C07D14D
:100AD0004FEA430C7FEA6C5CD6D152EA033CD3D098
:100AE0005DF8040B704700BF8446104662468C4692
:100AF0001946634600E000BF01B5FFF7B7FF0028C5
:100B000048BF10F1000F01BD4DF808EDFFF7F4FFED
:100B10000CBF012000205DF808FB00BF4DF808ED78
:100B2000FFF7EAFF34BF012000205DF808FB00BF9B
:100B30004DF808EDFFF7E0FF94BF012000205DF8BD
:100B400008FB00BF4DF808EDFFF7CEFF94BF012072
:100B500000205DF808FB00BF4DF808EDFFF7C4FF6B
:100B600034BF012000205DF808FB00BF4FEA410CB4
:100B70007FEA6C5C02D150EA013C0AD14FEA430C97
:100B80007FEA6C5C02D152EA033C02D14FF00000D4
:100B900070474FF0010070474FEA410212F5001212
:100BA00015D211D56FF47873B3EB625212D94FEAB4
:100BB000C12343F0004343EA505311F0004F23FA9E
:100BC00002F018BF404270474FF00000704750EAF3
:100BD000013005D111F0004008BF6FF000407047B0
:100BE0004FF00000704700BF4A0011D212F500120A
:100BF00011D20DD56FF47873B3EB62520ED44FEA75
:100C0000C12343F0004343EA505323FA02F07047F4
:100C10004FF00000704750EA013002D14FF0FF3032
:100C200070474FF0000070474FEA4102B2F1E043D5
:100C300024BFB3F5001CDCF1FE5C0DD901F0004CC3
:100C40004FEAC0024CEA5070B2F1004F40EB830013
:100C500008BF20F00100704711F0804F21D113F13F
:100C60003872BCBF01F00040704741F480114FEA78
:100C70005252C2F11802C2F1200C10FA0CF320FA01
:100C800002F018BF40F001004FEAC1234FEAD3231E
:100C900003FA0CFC40EA0C0023FA02F34FEA430388
:100CA000CCE77FEA625307D150EA01331EBF4FF011
:100CB000FE4040F44000704701F0004040F0FE402C
:100CC00040F40000704700BF53B94AB9002908BF7B
:100CD00000281CBF4FF0FF314FF0FF3000F074B917
:100CE000ADF1080C6DE904CE00F006F8DDF804E083
:100CF000DDE9022304B070472DE9F047089D044662
:100D00008E46002B4DD18A42944669D9B2FA82F2BE
:100D100052B101FA02F3C2F1200120FA01F10CFAFA
:100D200002FC41EA030E94404FEA1C48210CBEFB32
:100D3000F8F61FFA8CF708FB16E341EA034306FBBB
:100D400007F199420AD91CEB030306F1FF3080F04A
:100D50001F81994240F21C81023E63445B1AA4B297
:100D6000B3FBF8F008FB103344EA034400FB07F739
:100D7000A7420AD91CEB040400F1FF3380F00A817A
:100D8000A74240F207816444023840EA0640E41B6F
:100D900000261DB1D4400023C5E900433146BDE81B
:100DA000F0878B4209D9002D00F0EF800026C5E9BD
:100DB000000130463146BDE8F087B3FA83F6002ED5
:100DC0004AD18B4202D3824200F2F980841A61EB4D
:100DD000030301209E46002DE0D0C5E9004EDDE76B
:100DE00002B9FFDEB2FA82F2002A40F09280A1EB53
:100DF0000C014FEA1C471FFA8CFE0126200CB1FBA8
:100E0000F7F307FB131140EA01410EFB03F08842A0
:100E100008D91CEB010103F1FF3802D2884200F22D
:100E2000CB804346091AA4B2B1FBF7F007FB1011BF
:100E300044EA01440EFB00FEA64508D91CEB04045D
:100E400000F1FF3102D2A64500F2BB800846A4EBB8
:100E50000E0440EA03409CE7C6F12007B34022FAA3
:100E600007FC4CEA030C20FA07F401FA06F31C43D2
:100E7000F9404FEA1C4900FA06F3B1FBF9F8200CDF
:100E80001FFA8CFE09FB181140EA014108FB0EF025
:100E9000884202FA06F20BD91CEB010108F1FF3A75
:100EA00080F08880884240F28580A8F10208614481
:100EB000091AA4B2B1FBF9F009FB101144EA01418F
:100EC00000FB0EFE8E4508D91CEB010100F1FF343A
:100ED0006CD28E456AD90238614440EA0840A0FBD2
:100EE0000294A1EB0E01A142C846A64656D353D0A8
:100EF0005DB1B3EB080261EB0E0101FA07F722FACC
:100F000006F3F1401F43C5E9007100263146BDE8F4
:100F1000F087C2F12003D8400CFA02FC21FA03F357
:100F2000914001434FEA1C471FFA8CFEB3FBF7F0D8
:100F300007FB10360B0C43EA064300FB0EF69E42FD
:100F400004FA02F408D91CEB030300F1FF382FD296
:100F50009E422DD9023863449B1B89B2B3FBF7F63E
:100F600007FB163341EA034106FB0EF38B4208D917
:100F70001CEB010106F1FF3816D28B4214D9023E58
:100F80006144C91A46EA004638E72E46284605E776
:100F90000646E3E61846F8E64B45A9D2B9EB020847
:100FA00064EB0C0E0138A3E74646EAE7204694E7D7
:100FB0004046D1E7D0467BE7023B614432E730460A
:100FC00009E76444023842E7704700BF84B000225A
:100FD0000192104B196B41F080011963196B01F0FC
:100FE0008001019101990292196B41F0010119638D
:100FF000196B01F001010291029903921A6B42F000
:1010000002021A631B6B03F002030393039B04B0F9
:10101000704700BF0038024010B514464FF0FF3350
:1010200092B2024801F08DFC204610BD94020020CF
:1010300072B6FEE708B50A480A4B03600A4B4360E4
:1010400000238360C3604FF4804202614361836187
:10105000C361036200F0B0FB00B908BDFFF7E8FF11
:101060004002002000580040A086010008B50A4850
:101070000A4B03604FF4E133436000238360C36095
:1010800003610C2242618361C36101F02BFC00B952
:1010900008BDFFF7CDFF00BF9402002000440040D0
:1010A00000B595B03422002107A803F045FD0023C8
:1010B000029303930493059306930093184A116CCB
:1010C00041F080511164126C02F080520092009A3B
:1010D0000193144A116841F440411160126802F40E
:1010E00040420192019A0222079201220A921022A2
:1010F0000B920D9307A800F089FF68B90F230293A4
:101100000021039104910591069102A800F0A8FE28
:1011100020B915B05DF804FBFFF78AFFFFF788FFE1
:10112000003802400070004038B501F0CFFAFFF7F8
:10113000B7FFFFF74BFFFFF77DFFFFF797FF1C4857
:1011400002F020FF0128FAD040F6B83001F0EAFAA8
:10115000002401E00134A4B2164D2946144803F0DE
:101160001FFA6A6A144B1A60E86A144B1860AA6A7C
:10117000134B1A600A2CEDD1FFF706FA02460B4614
:10118000104C204604F04AF90B4B1868FFF7FCF9A5
:1011900002460B46204604F041F9094B1868FFF758
:1011A000F3F902460B46084804F038F90024D1E769
:1011B0004002002010020020D8020020E00200209F
:1011C000DC020020EC8C0008F08C0008FEE7FEE753
:1011D000FEE7FEE7FEE770477047704708B501F08D
:1011E0008FFA08BD82B0002100910B4B5A6C42F47B
:1011F00080425A645A6C02F480420092009A019133
:101200001A6C42F080521A641B6C03F080530193F5
:10121000019B02B0704700BF003802402DE9F04149
:1012200088B0002303930493059306930793026801
:101230001C4B9A4202D008B0BDE8F0810025019510
:10124000194C236B43F002032363236B03F0020367
:101250000193019B4FF4806303934FF01208CDF884
:1012600010800327069704230793104E03A93046E6
:1012700001F0D4F808230393CDF810800595069764
:101280000923079303A9304601F0C8F80295236C9F
:1012900043F480032364236C03F480030293029BD2
:1012A000C9E700BF00580040003802400004024077
:1012B00000B589B000230393049305930693079325
:1012C0000268154B9A4202D009B05DF804FB002178
:1012D000019103F5FA331A6C42F400321A641A6C65
:1012E00002F400320192019A02911A6B42F001025B
:1012F0001A631B6B03F001030293029B0C230393FD
:1013000002230493032306930723079303A90348A7
:1013100001F084F8D8E700BF00440040000002401C
:1013200003685A6912F4806F01D1002070476FF48E
:1013300080625A6100230363202280F83D2080F8F8
:101340003E30026C42F00402026480F83C3001201E
:1013500070472DE9F04107460D4690461E4624E0B1
:1013600001F0DAF9069BC01AB04200D8EEB90023AA
:101370003B63202287F83D2087F83E303A6C42F0EC
:1013800020023A6487F83C3001201EE03B689C69EB
:1013900025EA040C1FFA8CFCBCFA8CFC4FEA5C1C9E
:1013A000E04511D1B6F1FF3FDAD1C5F30743012B78
:1013B000ECD13B685B6925EA030C1FFA8CFCBCFA94
:1013C0008CFC4FEA5C1CEBE70020BDE8F0812DE9C6
:1013D000F04105460E46174698463DE01A6842F42D
:1013E00000721A602B686FF480625A6100232B63CD
:1013F000202285F83D2085F83E302A6C42F0040218
:101400002A6485F83C30012034E001F085F9A0EB36
:101410000800B84200D8FFB900232B63202285F8CA
:101420003D2085F83E302A6C42F020022A6485F87F
:101430003C3001201EE02B689C6926EA0404A4B21B
:10144000003C18BF0124A4B12B685A6912F4806FC4
:10145000C4D1B7F1FF3FD8D1C6F30743012BEAD17E
:101460002B685C6926EA0404A4B2003C18BF01247E
:10147000E9E70020BDE8F08170B504460D46164648
:1014800023685B6913F0800F1CD12046FFF748FFEB
:10149000D0B9B5F1FF3FF3D001F03EF9801BA8426F
:1014A00001D8002DECD100232363202284F83D20B5
:1014B00084F83E30226C42F02002226484F83C30F2
:1014C000012000E0002070BD0120FCE72DE9F04381
:1014D00085B004460D4691461F46DDF830800D9ECE
:1014E0000368196841F48071196000964346002230
:1014F0004FF00111FFF72DFF60B9236805F0FE05DD
:101500001D613346424626492046FFF760FF68B119
:10151000012008E023681B6813F4807F02D04FF499
:1015200000732364032005B0BDE8F0830023039318
:1015300023685A6903929B690393039B3246414691
:101540002046FFF799FF30B9012F0FD123685FFACA
:1015500089F61E61E7E7236C042B01D00120E2E746
:101560002268136843F400731360F7E723684FEAB7
:1015700019221A61324641462046FFF77DFF20B905
:1015800023685FFA89F61E61CDE7236C042B01D036
:101590000120C8E72268136843F400731360F7E77B
:1015A000020001002DE9F04784B004460D461646BE
:1015B00099460C9FDDF834800268136843F4806319
:1015C00013600368196841F480711960CDF80080D8
:1015D0003B4600224FF00111FFF7BBFE70B95FFAE6
:1015E00085FA236805F0FE051D6143463A464149E8
:1015F0002046FFF7ECFE68B1012008E023681B6875
:1016000013F4807F02D04FF400732364032004B0EE
:10161000BDE8F0870023039323685A6903929B690E
:101620000393039B424639462046FFF725FF80B9C6
:10163000B9F1010F18D12368F6B21E61424639464E
:101640002046FFF719FF68B3236C042B24D0012038
:10165000DDE7236C042B01D00120D8E72268136852
:1016600043F400731360F7E72368320A1A614246B5
:1016700039462046FFF700FF18B92368F6B21E610D
:10168000DCE7236C042B01D00120C0E7226813683B
:1016900043F400731360F7E72268136843F40073A0
:1016A0001360D4E72268136843F480731360CDF8A5
:1016B00000803B4600224FF001112046FFF749FE13
:1016C00068B922684AF00103136143463A46094962
:1016D0002046FFF77CFE002899D0012097E7236879
:1016E0001B6813F4807F02D04FF40073236403203F
:1016F0008DE700BF0200010070B504460D46164696
:1017000023685B6913F0040F1CD12046FFF708FE25
:10171000D0B9B5F1FF3FF3D000F0FEFF801BA84227
:1017200001D8002DECD100232363202284F83D2032
:1017300084F83E30226C42F02002226484F83C306F
:10174000012000E0002070BD0120FCE770B50546D7
:101750000C4616462B68596911F0400F29D159697A
:1017600011F0100F15D100F0D7FF801BA04201D857
:10177000002CEFD100232B63202285F83D2085F833
:101780003E302A6C42F020022A6485F83C30012069
:1017900070BD6FF010025A6100232B63202285F880
:1017A0003D2085F83E302A6C2A6485F83C300120C3
:1017B000EEE70020ECE70000002800F0CC8070B5D8
:1017C000044690F83D30002B77D0242384F83D3038
:1017D0002268136823F0010313602268136843F43E
:1017E000004313602268136823F40043136000F081
:1017F000EDFB62685A4B9A4264D85A4B98428CBFB0
:1018000000230123002B40F0A8805749A1FB0031A1
:101810008B0C25686A6822F03F0242EA91426A60B6
:1018200021680A6A22F03F0266684D4DAE424FD8E9
:10183000013313430B622168CA6922F44F4222F03C
:10184000FF026668464B9E424CD8431E7600B3FBAF
:10185000F6F3013340F6FC70034278D0C3F30B0378
:101860001343CB6121680B6823F0C003E269206A4F
:10187000024313430B6021688B6823F4034323F076
:10188000FF032269E068024313438B602168CB6841
:1018900023F0FF036269A06902431343CB6022680F
:1018A000136843F00103136000202064202384F8B0
:1018B0003D30206384F83E0070BD80F83C30FFF777
:1018C000ADFC82E7294B98428CBF0023012399E7A6
:1018D0004FF4967505FB03F3254DA5FB03539B09B8
:1018E0000133A6E7A368BBB9451E06EB460CB5FB62
:1018F000FCF50135C5F30B05B5FA85F56D0945BB5A
:10190000C3B9013806EB4603B0FBF3F30133C3F36D
:101910000B0343F40043A3E7451E06EB860C0CEBD8
:101920008C0CB5FBFCF50135C5F30B05B5FA85F557
:101930006D09E4E7013806EB860303EB8303B0FB94
:10194000F3F30133C3F30B0343F4404388E7042369
:1019500086E7012384E7012070470120ACE700BF40
:10196000A08601007F841E0083DE1B43FF083D002C
:10197000D34D62102DE9F04383B004460F469046E4
:1019800099460C9E00F0C8FE054694F83D00C0B292
:10199000202803D0022003B0BDE8F083009519236E
:1019A00001224B492046FFF7D4FC002840F08980F3
:1019B00094F83C30012B00F08680012384F83C3001
:1019C00023681A6812F0010F03D11A6842F001026D
:1019D0001A602268136823F400631360212384F8DB
:1019E0003D30402384F83E30002323640A9B636229
:1019F000BDF82C306385638D2385364BE3620195FA
:101A000000964B46424639462046FFF75FFD0028C8
:101A10005BD1238D002B35D02A4631462046FFF777
:101A20002BFD20BB626A236812781A61626A531C1C
:101A30006362218D013989B22185638D9BB2013B9F
:101A40009BB263852368586910F0040FE1D0002928
:101A5000DFD052781A61636A01336362238D013BE0
:101A60002385638D9BB2013B9BB26385D1E7236CD9
:101A7000042B01D001208EE72268136843F4007321
:101A80001360F7E72A4631462046FFF735FE50B18E
:101A9000236C042B01D001207DE72268136843F4F6
:101AA00000731360F7E72268136843F40073136050
:101AB000202384F83D30002384F83E3084F83C3005
:101AC00069E7022067E7022065E7012063E700BFBE
:101AD000020010000000FFFF2DE9F04387B004462C
:101AE0000F4690469946109E00F016FE054694F863
:101AF0003D00C0B2202804D00227384607B0BDE818
:101B0000F08300951923012288492046FFF721FC24
:101B1000002840F0438194F83C30012B00F04081D4
:101B2000012384F83C3023681A6812F0010F03D1B6
:101B30001A6842F001021A602268136823F40063F5
:101B40001360222384F83D30402384F83E30002384
:101B500023640E9B6362BDF83C306385638D2385EF
:101B6000734BE362019500964B4642463946204648
:101B7000FFF718FD0746002840F01481238D5BB95C
:101B8000029323685A6902929A690292029A1A6829
:101B900042F400721A6075E0012B0AD0022B1AD0B1
:101BA0000023059323685A6905929B690593059B59
:101BB00068E02268136823F48063136000230393B2
:101BC00023685A6903929A690392039A1A6842F445
:101BD00000721A6056E02268136823F48063136071
:101BE0002268136843F4006313600023049323689E
:101BF0005A6904929B690493049B43E02A46314648
:101C00002046FFF7A3FD002840F0CE8023681A6924
:101C1000636A1A70636A01336362238D013B238513
:101C2000638D9BB2013B9BB263852BE000953346ED
:101C3000002240492046FFF78CFB002840F0B68088
:101C40002268136843F40073136023681A69636A97
:101C50001A70626A531C6362238D013B2385638D76
:101C60009BB2013B9BB2638523681B695370636A17
:101C700001336362238D013B2385638D9BB2013B5E
:101C80009BB26385238D002B7FD0032B54D8012B6F
:101C9000B4D0022BCAD000953346002225492046F5
:101CA000FFF757FB002840F083802268136823F475
:101CB0008063136023681A69636A1A70636A013368
:101CC0006362238D013B2385638D9BB2013B9BB2F5
:101CD000638500953346002216492046FFF739FBFD
:101CE000002867D12268136843F4007313602368E7
:101CF0001A69636A1A70626A531C6362238D013B1E
:101D00002385638D9BB2013B9BB2638523681B696E
:101D10005370636A01336362238D013B2385638DB6
:101D20009BB2013B9BB26385ACE700BF0200100091
:101D30000000FFFF040001002A4631462046FFF75D
:101D400005FD002838D123681A69636A1A70626A2F
:101D5000531C6362238D013B2385638D9BB2013B42
:101D60009BB263852368596911F0040F8AD01B69FF
:101D70005370636A01336362238D013B2385638D56
:101D80009BB2013B9BB263857CE7202384F83D3006
:101D9000002384F83E3084F83C30AEE60227ACE6FF
:101DA0000227AAE60127A8E60127A6E60127A4E65E
:101DB0000127A2E60127A0E601279EE608B5254BEC
:101DC0009B6803F00C03042B3FD0082B3FD1214B21
:101DD0005A6802F03F025B6813F4800F12D01D4B6B
:101DE0005968C1F388111C480023A1FB0001FEF7CC
:101DF0006BFF184B5B68C3F3014301335B00B0FB1F
:101E0000F3F025E0134B5968C1F3881C4FEA4C11DD
:101E1000B1EB0C006EEB0E0E4FEA8E1343EA9063AB
:101E20008101091A63EB0E03DB0043EA5173C90019
:101E300011EB0C0C43F10003990200234FEA8C20B4
:101E400041EA9C51FEF740FFD3E7034800E0034816
:101E500008BD00BF0038024040787D010024F40036
:101E6000002800F09B8070B50D4604464F4B1B6860
:101E700003F007038B4208D2CBB24C4A13701368AD
:101E800003F007038B4240F08B80236813F0020FAE
:101E900017D013F0040F04D0454A936843F4E0537D
:101EA0009360236813F0080F04D0414A936843F409
:101EB000604393603E4A936823F0F003A1680B43AC
:101EC0009360236813F0010F32D06368012B21D097
:101ED0009A1E012A25D9364A126812F0020F61D0E3
:101EE00033498A6822F0030213438B6000F014FC2C
:101EF00006462F4B9B6803F00C036268B3EB820F1E
:101F000016D000F009FC801B41F288339842F0D9CA
:101F1000032042E0264A126812F4003FE0D101207B
:101F20003BE0234A126812F0007FD9D1012034E04F
:101F30001E4B1B6803F00703AB4207D9EAB21B4BE9
:101F40001A701B6803F00703AB422DD1236813F00E
:101F5000040F06D0164A936823F4E053E1680B435C
:101F60009360236813F0080F07D0114A936823F495
:101F70006043216943EAC1039360FFF71FFF0C4BE5
:101F80009B68C3F303130B4AD35CD8400A4B186019
:101F90000A4B186800F074FB002070BD01207047E8
:101FA0000120FAE70120F8E70120F6E7003C0240B3
:101FB00000380240F88C00080800002004000020CF
:101FC000014B1868704700BF0800002008B5FFF7F4
:101FD000F7FF044B9B68C3F38223034AD35CD840CA
:101FE00008BD00BF00380240088D000808B5FFF7A3
:101FF000E7FF044B9B68C3F34233034AD35CD840EA
:1020000008BD00BF00380240088D0008002800F01D
:10201000E98170B582B00446036813F0010F3BD02C
:102020009F4B9B6803F00C03042B2CD09C4B9B68AC
:1020300003F00C03082B21D06368B3F5803F4FD029
:10204000B3F5A02F52D0964B1A6822F480321A6052
:102050001A6822F480221A606368002B50D000F0C6
:102060005BFB05468E4B1B6813F4003F14D100F058
:1020700053FB401B6428F5D90320BAE1884B5B6809
:1020800013F4800FD8D0864B1B6813F4003F03D0A5
:102090006368002B00F0A881236813F0020F54D06E
:1020A0007F4B9B6813F00C0F3ED07D4B9B6803F079
:1020B0000C03082B33D0E368002B68D0794B012246
:1020C0001A6000F029FB0546754B1B6813F0020FE0
:1020D00054D100F021FB401B0228F5D9032088E1F0
:1020E0006F4A136843F480331360B5E76C4B1A688A
:1020F00042F480221A601A6842F480321A60ABE718
:1021000000F00AFB0546664B1B6813F4003FC3D082
:1021100000F002FB401B6428F5D9032069E1604B05
:102120005B6813F4800FC6D15D4B1B6813F0020F80
:1021300003D0E368012B40F05981594A136823F01A
:10214000F803216943EAC1031360236813F0080F01
:1021500042D063696BB3534B0122C3F8802E00F069
:10216000DBFA05464E4B5B6F13F0020F34D100F0E3
:10217000D3FA401B0228F5D903203AE1484A1368F4
:1021800023F0F803216943EAC1031360DDE7454BFF
:1021900000221A6000F0C0FA0546414B1B6813F09C
:1021A000020FD2D000F0B8FA401B0228F5D9032064
:1021B0001FE13C4B0022C3F8802E00F0ADFA05462B
:1021C000374B5B6F13F0020F06D000F0A5FA401BEF
:1021D0000228F5D903200CE1236813F0040F77D00F
:1021E0002F4B1B6C13F0805F33D1002301932C4BDA
:1021F0001A6C42F080521A641B6C03F080530193F6
:10220000019B0125284B1B6813F4807F23D0A36812
:10221000012B34D0052B38D0214B1A6F22F001024C
:102220001A671A6F22F004021A67A368002B3DD0C8
:1022300000F072FA06461A4B1B6F13F0020F46D1DC
:1022400000F06AFA801B41F288339842F3D90320E8
:10225000CFE00025D6E7144A136843F48073136077
:1022600000F05AFA0646104B1B6813F4807FCED15B
:1022700000F052FA801B0228F5D90320B9E0084A81
:10228000136F43F001031367CFE7054B1A6F42F05A
:1022900004021A671A6F42F001021A67C5E700BF0D
:1022A00000380240000047420070004000F034FA5D
:1022B0000646584B1B6F13F0020F08D000F02CFAA3
:1022C000801B41F288339842F3D9032091E0EDB9A5
:1022D000A369002B00F08C804E4A926802F00C0239
:1022E000082A54D0022B17D04B4B00221A6600F05C
:1022F00013FA0446474B1B6813F0007F45D000F0EB
:102300000BFA001B0228F5D9032072E0414A136C36
:1023100023F080531364DBE73F4B00221A6600F082
:10232000FBF905463B4B1B6813F0007F06D000F01D
:10233000F3F9401B0228F5D903205AE0E369226A29
:102340001343626A43EA8213A26A5208013A43EADB
:102350000243E26A43EA0263226B43EA02732D4AB4
:1023600053602D4B01221A6600F0D6F90446294B22
:102370001B6813F0007F06D100F0CEF9001B022885
:10238000F5D9032035E0002033E0002031E0012BB7
:1023900031D0204B5B6803F48001E26991422CD17B
:1023A00003F03F02216A8A4229D1616A47F6C0726E
:1023B0001A40B2EB811F24D103F44031A26A5208C3
:1023C000013AB1EB024F1ED103F07062E16AB2EB49
:1023D000016F1AD103F0E043226BB3EB027F16D1F9
:1023E000002006E001207047012002E0012000E00B
:1023F000002002B070BD0120FBE70120F9E70120B9
:10240000F7E70120F5E70120F3E70120F1E70120DC
:10241000EFE700BF003802400000474200230F2BC7
:1024200000F2C68070B582B060E085685E0003246B
:10243000B44025EA0405CC68B4402C438460456868
:1024400025EA02054C68C4F300129A402A43426010
:102450005AE0DC08083450F8246003F007029500C5
:102460000F22AA4026EA020E0A69AA4042EA0E0298
:1024700040F824205CE0022200E0002202FA0EF282
:102480002A4302344B4D45F824204B4A94686FEAA6
:102490000C0224EA0C054E6816F4801F01D04CEAA9
:1024A0000405454CA560E46802EA04054E6816F48C
:1024B000001F01D04CEA04053F4CE560646802EA65
:1024C00004054E6816F4003F01D04CEA04053A4C6E
:1024D0006560246822404D6815F4803F01D04CEAC5
:1024E0000402354C226001330F2B5FD801229A4041
:1024F0000C6804EA020C32EA0404F4D14C6804F0DB
:102500000304013C012C90D94A6802F00302032A1B
:1025100009D0C4685D000322AA4024EA02048A6844
:10252000AA402243C2604A6802F00302022A90D005
:1025300004684FEA430E032202FA0EF224EA020470
:102540004A6802F0030202FA0EF2224302604A686D
:1025500012F4403FC7D000220192184A546C44F450
:1025600080445464526C02F480420192019A9C08A7
:10257000A51C104A52F8255003F003024FEA820EC0
:102580000F2202FA0EF225EA02050D4A90423FF4AC
:1025900074AF02F58062904206D002F580629042EC
:1025A0003FF469AF072269E7012267E702B070BD17
:1025B000704700BF00380140003C01400038024035
:1025C00000000240074AD36823F4E0631B041B0C9D
:1025D000000200F4E060034343F0BF6343F40033C0
:1025E000D360704700ED00E000B5194BDB68C3F322
:1025F0000223C3F1070CBCF1040F28BF4FF0040CF9
:1026000003F1040EBEF1060F18D9033B4FF0FF3E55
:102610000EFA0CFC21EA0C0199400EFA03F322EAAF
:102620000303194300280BDB0901C9B200F1604024
:1026300000F5614080F800135DF804FB0023E5E736
:1026400000F00F000901C9B2024B1954F4E700BFB2
:1026500000ED00E014ED00E00138B0F1807F0BD216
:102660004FF0E0235861054AF02182F82310002042
:10267000986107221A6170470120704700ED00E061
:1026800010B504460E4B18784FF47A73B3FBF0F391
:102690000C4A1068B0FBF3F0FFF7DEFF68B90F2CAF
:1026A00001D901200AE0002221464FF0FF30FFF758
:1026B0009BFF054B1C60002000E0012010BD00BF07
:1026C00000000020080000200400002008B50B4B8B
:1026D0001A6842F400721A601A6842F480621A6042
:1026E0001A6842F480721A600320FFF76BFF0F2014
:1026F000FFF7C6FFFEF776FD002008BD003C024054
:10270000034A1168034B1B780B441360704700BFEA
:10271000E402002000000020014B1868704700BF51
:10272000E402002038B50446FFF7F6FF0546B4F191
:10273000FF3F02D0044B1B781C44FFF7EDFF401B0A
:10274000A042FAD338BD00BF0000002038B50446CF
:102750000268136923F44053C1680B431361836813
:102760000269134342691343C2691A430168CB6883
:1027700023F4164323F00C031343CB600268536920
:1027800023F4407381690B4353610368314A9342D8
:1027900006D002F58062934202D0FFF717FC01E0F9
:1027A000FFF724FCE369B3F5004F29D0002103189B
:1027B00049411B1841F10001C90041EA5371DB0096
:1027C000181863684FEA83024FEA937341F10001DE
:1027D000FEF77AFA204DA5FB00325109642303FB72
:1027E00011031B013233A5FB03235B0903F0F00245
:1027F00002EB011203F00F03216813448B6038BD14
:102800000023021843EB0301121841F10001C90033
:1028100041EA5271D200101841F100016268921829
:102820005B41FEF751FA0C4DA5FB003251096423C0
:1028300003FB1103DB003233A5FB03235B095A00C2
:1028400002F4F87202EB011203F00703216813444B
:102850008B60D4E7001001401F85EB512DE9F84350
:1028600005460F4616469946DDF820802C682468F8
:1028700037EA04030CBF4FF0010C4FF0000CB445D5
:102880002DD1B8F1FF3FF1D0B8F1000F05D0FFF71F
:1028900043FFA0EB09004045E8D92A6802F10C0388
:1028A00053E8003F23F4D0730C3242E80031002992
:1028B000F3D12A6802F1140353E8003F23F0010327
:1028C000143242E800310029F3D1202385F83D304D
:1028D00085F83E30002385F83C30032000E00020DE
:1028E000BDE8F88358B310B5044690F83D300BB3FB
:1028F000242384F83D302268D36823F40053D36046
:102900002046FFF723FF2268136923F490431361E5
:102910002268536923F02A0353612268D36843F481
:102920000053D36000202064202384F83D3084F8D5
:102930003E3010BD80F83C30FEF7BAFCD8E70120ED
:1029400070472DE9F04182B01E4690F83D30DBB271
:10295000202B54D104460D469046002953D0002A1E
:1029600053D090F83C30012B51D0012380F83C30FB
:1029700000230364212380F83D30FFF7CDFE074696
:10298000A4F82480A4F82680A368B3F5805F05D05E
:102990004FF00008002384F83C3012E0236913B1A3
:1029A0004FF00008F6E7A8460025F3E738F8023BA9
:1029B0002268C3F308035360E28C92B2013A92B2E8
:1029C000E284E38C9BB273B100963B4600228021E7
:1029D0002046FFF743FFE0B9002DE7D015F8012BA3
:1029E00023685A60E8E700963B46002240212046D3
:1029F000FFF734FF78B9202384F83D3000E002204F
:102A000002B0BDE8F0810120FAE70120F8E70220DA
:102A1000F6E70320F4E70320F2E70000034AD2F8C8
:102A2000883043F47003C2F88830704700ED00E04E
:102A3000064B1B7813B1012B04D07047044B054A99
:102A40001A607047024B044A1A6070470F0000205A
:102A500074030020FFEBBF40FFEBBF3F0B4B1B7825
:102A6000032B12D8DFE803F002060A0E084B094ACE
:102A70001A607047064B084A1A607047044B074AB1
:102A80001A607047024B064A1A6070470D0000201A
:102A9000400300200000FA3B00007A3C0000FA3CB2
:102AA00000007A3D0D4B1B78032B16D8DFE803F0AE
:102AB00002070C110A4B4FF062521A607047084B24
:102AC0004FF064521A607047054B4FF066521A601F
:102AD0007047034B4FF068521A6070470C0000209B
:102AE0001803002010B586B00C4664230293062319
:102AF000019304AB009301233B22D021FEF7ECFFAE
:102B00009DF810209DF8113043EA022323809DF8A0
:102B100012209DF8133043EA022363809DF81420AD
:102B20009DF8153043EA0223A38006B010BD10B50E
:102B300086B00C46642302930623019304AB0093F2
:102B400001234322D021FEF7C7FF9DF810209DF8F6
:102B5000113043EA022323809DF812209DF81330A0
:102B600043EA022363809DF814209DF8153043EA60
:102B70000223A38006B010BD30B587B005460C46D1
:102B800064230293012301930DF1170200920222A4
:102B90001821FEF7A1FF9DF8173013F0010F01D1A6
:102BA00007B030BD642302930723019304AB009365
:102BB0000123032218212846FEF78EFF9DF81630C8
:102BC00013F0080FECD19DF811209DF8103043EA66
:102BD000022323809DF813209DF8123043EA02233C
:102BE00063809DF815209DF8143043EA0223A380EA
:102BF000D6E700002DE9F04786B007460E464FF0B5
:102C0000000A8DF817A064250295012401940DF1A6
:102C10001708CDF8008023460A221821FEF7AAFEE5
:102C20002846FFF77FFD0F238DF81730029501949A
:102C3000CDF8008023460A2218213846FEF79AFE76
:102C40002846FFF76FFD02950323019305AB009320
:102C50002346102218213846FEF73EFF9DF8140047
:102C6000803807EE900AF8EEE77A17EE900AFDF743
:102C70008BFC00223D4BFDF7DFFC00223C4BFDF7B7
:102C800025FBFDF7D1FF814630609DF815008038A7
:102C900007EE900AF8EEE77A17EE900AFDF774FC5B
:102CA0000022324BFDF7C8FC0022314BFDF70EFB32
:102CB000FDF7BAFF70609DF81600803807EE900AA5
:102CC000F8EEE77A17EE900AFDF75EFC0022274B3C
:102CD000FDF7B2FC0022264BFDF7F8FAFDF7A4FF42
:102CE000B0604846FDF750FC02460B46214802F012
:102CF00095FB7068FDF748FC02460B461E4802F043
:102D00008DFBB068FDF740FC02460B461B4802F005
:102D100085FB1B4802F008FC8DF817A00295019472
:102D2000CDF8008023460A2218213846FEF722FEFD
:102D30002846FFF7F7FC134B1A78134B1B7843EA2E
:102D400002138DF8173002950194CDF800802346C8
:102D50000A2218213846FEF70DFE0A20FFF7E2FC92
:102D60000A4802F0E1FB06B0BDE8F0870000703FC2
:102D70000000F03F108D0008248D0008388D0008F9
:102D80004C8D00080F0000200E000020688D000808
:102D90002DE9F0438DB00546884617460023099378
:102DA0000A930B930693079308936F4A92E80300E4
:102DB0000490ADF81410083292E803000290ADF8C8
:102DC0000C10ADF80030ADF80230ADF804306748B3
:102DD00002F0AAFB4FF47A60FFF7A4FC644B1B7867
:102DE000022B04D00026062B03D0002429E08026E5
:102DF000F9E740F2DC56F8E70133022B17DC0CAAA6
:102E000002EB430E3EF930CC3EF9202C944501DD17
:102E10002EF820CC0CAA02EB430232F9282C944560
:102E2000EADA0CAA02EB430222F828CCE4E7504B82
:102E30001B78022B0DD04E4B1B78062B0DD0013486
:102E4000A4B2B4420DD269462846FFF795FE00238E
:102E5000D3E78720FFF766FCEDE70C20FFF762FC65
:102E6000EDE7BDF91010BDF908C001EB0C0303EB51
:102E7000D3735C100994BDF91220BDF90A6093194F
:102E800003EBD37358100A90BDF91430BDF90C5000
:102E900003EB050E0EEBDE7E4FEA6E0ECDF82CE056
:102EA00007EE904AF8EEE77ADFF8D09099ED007AD5
:102EB00067EE877A2F4C94ED007A67EE877AC8ED3B
:102EC000007A07EE900AF8EEE77A99ED007A67EE5D
:102ED000877AD4ED016A67EEA67AC8ED017A07EE2B
:102EE00090EAF8EEE77A67EE277A94ED027A67EED9
:102EF000877AC8ED027AA1EB0C0101EBD171491080
:102F00000691921B02EBD272521007925B1B03EBED
:102F1000D3735B1008938818184407EE900AF8EEF4
:102F2000E77AF0EE086A87EEA67A07EE901AF8EED6
:102F3000E77AC7EE276AC7ED006A07EE902AF8EE37
:102F4000E77AC7EE276AC7ED016A07EE903AF8EE16
:102F5000E77AC7EE276AC7ED026A074802F0E4FA8B
:102F60000DB0BDE8F08300BFD08C0008808D000854
:102F70000E00002084030020BC8D00087403002094
:102F80002DE9F04186B0064600238DF81630642501
:102F90000295012401940DF11607009723466B2238
:102FA000D021FEF7E7FC2846FFF7BCFB8DF8164062
:102FB00002950194009723466B22D0213046FEF7FC
:102FC000D9FC2846FFF7AEFB03238DF81630029597
:102FD0000194009723461A22D0213046FEF7CAFCFE
:102FE0002846FFF79FFB04238DF8163002950194C5
:102FF000009723461922D0213046FEF7BBFC284615
:10300000FFF790FB029501940DF11708CDF80080B1
:1030100023461B22D0213046FEF75EFD9DF8173077
:1030200003F0FC038DF8173003F0E4038DF817303C
:10303000324A127843EAC2038DF817302846FFF768
:1030400071FB9DF817308DF81630029501940097AA
:1030500023461B22D0213046FEF78CFC2846FFF782
:1030600061FB02950194CDF8008023461C22D021FB
:103070003046FEF731FD9DF8173003F0E7038DF879
:1030800017301F4A127843EAC203DBB28DF81730BB
:103090008DF8163002950194009723461C22D0210A
:1030A0003046FEF767FC2846FFF73CFB029501948B
:1030B000CDF8008023461D22D0213046FEF70CFDBE
:1030C0009DF8173003F0F0038DF8173043F0030339
:1030D0008DF817308DF8163002950194009723462D
:1030E0001D22D0213046FEF745FC2846FFF71AFB8B
:1030F000044802F019FA06B0BDE8F0810D00002086
:103100000C000020D48D00082DE9F04F2DED028B2E
:103110009BB00446069107924FF00008CDF84C8012
:10312000CDF85080CDF85480CDF84080CDF8448063
:10313000CDF8488080238DF86730642502950126FC
:1031400001960DF16707009733466B22D021FEF7F9
:1031500011FC2846FFF7E6FA8DF8676002950196A4
:10316000009733466B22D0212046FEF703FC8DF8F2
:10317000678002950196009733466C22D021204645
:10318000FEF7F8FBC820FFF7CDFA8DF867800295AF
:103190000196009733463822D0212046FEF7EAFBFD
:1031A0008DF8678002950196009733462322D0213F
:1031B0002046FEF7DFFB8DF86780029501960097A9
:1031C00033466B22D0212046FEF7D4FB8DF8678072
:1031D00002950196009733462422D0212046FEF71F
:1031E000C9FB8DF8678002950196009733466A22E5
:1031F000D0212046FEF7BEFB0C238DF867300295E8
:103200000196009733466A22D0212046FEF7B2FB92
:103210000F20FFF787FA8DF86760029501960097F7
:1032200033461A22D0212046FEF7A4FB8DF8678092
:1032300002950196009733461922D0212046FEF7C9
:1032400099FB8DF8678002950196009733461B2203
:10325000D0212046FEF78EFB8DF8678002950196FF
:10326000009733461C22D0212046FEF783FB4023E3
:103270008DF8673002950196009733466A22D02177
:103280002046FEF777FB78238DF86730029501968C
:10329000009733462322D0212046FEF76BFB2820DF
:1032A000FFF740FA8DF86780029501960097334644
:1032B0002322D0212046FEF75DFB029502230193D5
:1032C00016AB009333467222D0212046FEF704FC51
:1032D0009DF858309DF859B04BEA032BD44BA3FB13
:1032E0000B3B4FEADB0B454663E00023ADF8203093
:1032F000ADF82230ADF82430ADF82830ADF82A30E2
:10330000ADF82C30642302930C23019316AB009389
:1033100001237422D0212046FEF7DEFB9DF85830B1
:103320009DF8596046EA032636B2ADF820609DF854
:103330005A309DF85BC04CEA032C0FFA8CFCADF8B8
:1033400022C09DF85C309DF85D0040EA032000B289
:10335000ADF824009DF85E309DF85F1041EA03212E
:1033600009B2ADF828109DF860309DF8612042EA5E
:10337000032212B2ADF82A209DF862709DF86330E6
:1033800043EA07231BB2ADF82C30109F3E44109641
:10339000119E66441196129E304412901398014477
:1033A000139114990A441492159A134415930135F4
:1033B000ADB25D4599D3109B93FBFBF3049310933F
:1033C000119B93FBFBF305931193129B93FBFBF370
:1033D0001293139A92FBFBF9CDF84C90149A92FB3E
:1033E000FBFACDF850A0159A92FBFBFBCDF854B038
:1033F000002B40F3FF80A3F580431293C9F1000333
:10340000002BC0F2FB809910C3F387228DF858205F
:103410008DF85910CAF10003002BC0F2F180991009
:103420009B128DF85A308DF85B10CBF10003002B06
:10343000C0F2E88099109B128DF85C308DF85D1019
:103440008DF867204FF06408CDF8088001260196BA
:103450000DF16705009533461322D0212046FEF773
:1034600089FA9DF859308DF86730CDF808800196BB
:10347000009533461422D0212046FEF77BFA9DF8B2
:103480005A308DF86730CDF80880019600953346A4
:103490001522D0212046FEF76DFA9DF85B308DF89D
:1034A0006730CDF808800196009533461622D0216A
:1034B0002046FEF75FFA9DF85C308DF86730CDF856
:1034C00008800196009533461722D0212046FEF74A
:1034D00051FA9DF85D308DF86730CDF8088001967F
:1034E000009533461822D0212046FEF743FA07EE16
:1034F000909AF8EEE77A9FED4F7AC7EE876A069BBF
:10350000C3ED006A07EE90AAF8EEE77AC7EE878A65
:10351000C3ED018A07EE90BAF8EEE77A87EE878A64
:1035200083ED028A16EE900AFDF72EF802460B464E
:10353000414801F073FF18EE900AFDF725F80246A6
:103540000B463E4801F06AFF18EE100AFDF71CF822
:1035500002460B463A4801F061FF3A4801F0E4FFA9
:1035600000250D950E950F95CDF808804FF0020BB4
:10357000CDF804B00DF1580ACDF800A033467722FB
:10358000D0212046FEF7A8FA9DF858309DF85970D2
:1035900047EA03270D97CDF80880CDF804B0CDF8A1
:1035A00000A033467A22D0212046FEF795FA9DF8F6
:1035B00058309DF8599049EA0329CDF83890CDF854
:1035C0000880CDF804B0CDF800A033467D22D0218C
:1035D0002046FEF781FA9DF858209DF8593043EABD
:1035E00002230F93184A1269ADF83020120C8DF89F
:1035F00032200BE003F580431293FFE6033302E72A
:1036000003330CE7033315E70135ADB2022D1FD8A4
:103610001AAA02EB850252F8342C12F0010FF3D0F3
:10362000012105F168026A4402F8381CECE700BF8A
:10363000ABAAAAAA00000343EC8D0008008E000884
:10364000148E00084C8D0008D08C000800008038D3
:1036500004990A460029C0F2CC80A7EBE2070D9737
:1036600005990A460029C0F2C680A9EBE2020E9233
:10367000129E3146002EC0F2C080A3EBE1030F93EF
:10368000C7F307218DF85810FFB28DF859709DF8D7
:10369000300007438DF8597010128DF85A005FFA08
:1036A00082F98DF85B909DF8312049EA02098DF886
:1036B0005B901A128DF85C20DBB28DF85D309DF8BE
:1036C000322013438DF85D308DF867104FF0640899
:1036D000CDF80880012501950DF1670700972B466D
:1036E0007722D0212046FEF745F99DF859308DF814
:1036F0006730CDF80880019500972B467822D021BD
:103700002046FEF737F99DF85A308DF86730CDF82E
:103710000880019500972B467A22D0212046FEF79B
:1037200029F99DF85B308DF86730CDF80880019558
:1037300000972B467B22D0212046FEF71BF99DF8EF
:103740005C308DF86730CDF80880019500972B46E6
:103750007D22D0212046FEF70DF99DF85D308DF8D1
:103760006730CDF80880019500972B467E22D02146
:103770002046FEF7FFF8DDED047AF8EEE77A1FED5C
:103780004D7A67EE877A079BC3ED007ADDED056A17
:10379000B8EEE68A28EE078A83ED018A06EE906A83
:1037A000F8EEE68A68EE878AC3ED028A17EE900A81
:1037B000FCF7EAFE02460B46114801F02FFE18EE18
:1037C000100AFCF7E1FE02460B460E4801F026FE09
:1037D00018EE900AFCF7D8FE02460B460A4801F0A4
:1037E0001DFE0A4801F0A0FE1BB0BDEC028BBDE837
:1037F000F08FCA1D31E7CA1D37E7F11D3DE700BF55
:10380000288E00083C8E0008508E00084C8D000861
:103810002DE9F04F2DED068BA1B004468B46A54B4C
:1038200093E803001E90ADF87C10002519951A95B9
:103830001B95169517951895139514951595109534
:10384000119512958DF87F504FF06409CDF80890CE
:10385000012701970DF17F08CDF800803B46192222
:10386000D0212046FEF786F84FF0020A8DF87FA09F
:10387000CDF808900197CDF800803B461A22D02160
:103880002046FEF777F88DF87F50CDF80890019725
:10389000CDF800803B461B22D0212046FEF76AF877
:1038A0008DF87FA0CDF808900197CDF800803B46B9
:1038B0001D22D0212046FEF75DF88DF87F50CDF80F
:1038C00008900197CDF800803B461C22D02120466D
:1038D000FEF750F854E04FF06409CDF80890062642
:1038E00001961EAF009701233B22D0212046FEF710
:1038F000F3F89DF878209DF8793043EA0223169A70
:1039000002FA83F316939DF87A209DF87B3043EA00
:103910000223179A02FA83F317939DF87C209DF8EF
:103920007D3043EA0223189A02FA83F31893CDF804
:1039300008900196009701234322D0212046FEF7EC
:10394000CBF89DF878209DF8793043EA0223199A44
:1039500002FA83F319939DF87A209DF87B3043EAAD
:1039600002231A9A02FA83F31A939DF87C209DF899
:103970007D3043EA02231B9A02FA83F31B9301353D
:10398000C72DA8DD002516E020AB03EB850151F81B
:10399000282C494880FB0263D217C2EBA31241F8DE
:1039A000282C51F81C3C80FB0320DB17C3EBA01331
:1039B00041F81C3C0135022DE6DD4FF0E0098DF8A1
:1039C0007F904FF06408CDF80880012501950DF136
:1039D0007F0700972B461C22D0212046FDF7CAFF07
:1039E0008DF87F90CDF80880019500972B461B221B
:1039F000D0212046FDF7BEFF1920FEF793FE0025DB
:103A000054E04FF06409CDF80890062601961EAFE9
:103A1000009701233B22D0212046FEF75DF89DF858
:103A200078209DF8793043EA0223139A02FA83F34F
:103A300013939DF87A209DF87B3043EA0223149A71
:103A400002FA83F314939DF87C209DF87D3043EABD
:103A50000223159A02FA83F31593CDF80890019684
:103A6000009701234322D0212046FEF735F89DF828
:103A700078209DF8793043EA0223109A02FA83F302
:103A800010939DF87A209DF87B3043EA0223119A27
:103A900002FA83F311939DF87C209DF87D3043EA70
:103AA0000223129A02FA83F312930135C72DA8DD7F
:103AB00000251AE0E48C00081F85EB5120AB03EBD6
:103AC000850151F8342CA44880FB0263D217C2EB65
:103AD000A31241F8342C51F8403C80FB0320DB1743
:103AE000C3EBA01341F8403C0135022DE6DD4FF059
:103AF00000098DF87F904FF06408CDF8088001250B
:103B000001950DF17F0700972B461C22D0212046FE
:103B1000FDF730FF8DF87F90CDF808800195009774
:103B20002B461B22D0212046FDF724FF1920FEF74B
:103B3000F9FDCDF8088001951CAB00932B460D22B2
:103B4000D0212046FDF7C8FFCDF8088001950DF182
:103B5000710300932B460E22D0212046FDF7BCFFB7
:103B6000CDF8088001950DF1720300932B460F22CA
:103B7000D0212046FDF7B0FFCDF8088001950DF16A
:103B8000730300932B464A46D0212046FDF7A4FF3D
:103B9000CDF8088001951DAB00932B462A46D02115
:103BA0002046FDF799FFCDF8088001950DF17503CA
:103BB00000932B460222D0212046FDF78DFF9DF871
:103BC000700007EE900AF8EE677A17EE900AFCF79D
:103BD000DBFC0022614BFCF777FB9FED5B8B41EC3C
:103BE000110BB0EE480AF0EE680A03F051FD51ECFB
:103BF000100B57A3D3E90023FCF71EFDFDF714F8C3
:103C00000A909DF8710007EE900AF8EE677A17EEB9
:103C1000900AFCF7B9FC0022504BFCF755FB41EC35
:103C2000110BB0EE480AF0EE680A03F031FD51ECDA
:103C3000100B47A3D3E90023FCF7FEFCFCF7F4FFCD
:103C40000B909DF8720007EE900AF8EE677A17EE77
:103C5000900AFCF799FC0022404BFCF735FB41EC45
:103C6000110BB0EE480AF0EE680A03F011FD51ECBA
:103C7000100B37A3D3E90023FCF7DEFCFCF7D4FFDD
:103C80000C909DF8730007EE900AF8EE677A17EE35
:103C9000900AFCF779FC0022304BFCF715FB41EC55
:103CA000110BB0EE480AF0EE680A03F0F1FC51EC9B
:103CB000100B27A3D3E90023FCF7BEFCFCF7B4FFED
:103CC0000D909DF8740007EE900AF8EE677A17EEF3
:103CD000900AFCF759FC0022204BFCF7F5FA41EC66
:103CE000110BB0EE480AF0EE680A03F0D1FC51EC7B
:103CF000100B17A3D3E90023FCF79EFCFCF794FFFD
:103D00000E909DF8750007EE900AF8EE677A17EEB0
:103D1000900AFCF739FC0022104BFCF7D5FA41EC75
:103D2000110BB0EE480AF0EE680A03F0B1FC51EC5A
:103D3000100B07A3D3E90023FCF77EFCFCF774FF0C
:103D40000F904C465EE000BF295C8FC2F528F03F23
:103D5000000000000078A4401F85EB510000F03FF8
:103D600020AB03EB840555F8340C55F8283CC01AF9
:103D700007EE900AF8EEE77A17EE900AFCF704FCDB
:103D80000022784BFCF758FC8046894655F8580CC1
:103D9000FCF7FAFB02460B4640464946FCF776FD27
:103DA0000022704BFCF790FAFCF71EFF45F8700CF0
:103DB00055F8400C55F81C3CC01A07EE900AF8EE76
:103DC000E77A17EE900AFCF7DFFB0022654BFCF761
:103DD00033FC80468946E51C20AB03EB850555F88E
:103DE000580CFCF7D1FB02460B4640464946FCF70F
:103DF0004DFD00225B4BFCF767FAFCF7F5FE45F83A
:103E0000700C0134022CABDDDDED057AB8EE67AA4B
:103E1000DDED067AF8EE679ADDED077AB8EE679A7F
:103E2000DDED087AF8EE678ADDED097AB8EE678A8B
:103E3000DDED047AF8EE677A17EE900AFCF7A4FB42
:103E400002460B46484801F0E9FA1AEE100AFCF760
:103E50009BFB02460B46454801F0E0FA19EE900A3A
:103E6000FCF792FB02460B46414801F0D7FA19EEE7
:103E7000100AFCF789FB02460B463E4801F0CEFAD9
:103E800018EE900AFCF780FB02460B463A4801F018
:103E9000C5FA18EE100AFCF777FB02460B463748C6
:103EA00001F0BCFA364801F03FFB002453E0A700C4
:103EB00020AB03EB840555F8340C55F8283CC01AA8
:103EC00007EE900AF8EEE77A17EE900AFCF75CFB33
:103ED0000022244BFCF7B0FB8046894655F8580C6D
:103EE000FCF752FB02460B4640464946FCF7CEFC27
:103EF0005F4400221B4BFCF7E7F9FCF795FE3860A6
:103F000055F8400C55F81C3CC01A07EE900AF8EE24
:103F1000E77A17EE900AFCF737FB0022114BFCF70B
:103F20008BFB80468946E31C9D0020AA02EB83039D
:103F300053F8580CFCF728FB02460B46404649460E
:103F4000FCF7A4FC5D440022064BFCF7BDF9FCF72E
:103F50006BFE28600134022CA9DD21B0BDEC068B7C
:103F6000BDE8F08F00005940648E0008788E00088C
:103F70008C8E0008A08E0008B48E0008C88E000841
:103F80004C8D000870B586B00446324D284601F0CD
:103F9000CBFA314801F0C8FA284601F0C5FA64238B
:103FA0000293012301930DF1170200927522D02193
:103FB0002046FDF791FD9DF81710284801F02EFAD4
:103FC0009DF81730712B02D0012006B070BD244936
:103FD0002046FFF71DFC234A23492046FFF794F8AB
:103FE0004FF47A70FEF79EFB2046FEF7C9FF2223AE
:103FF0008DF8163064260296012501950DF1160301
:1040000000932B463722D0212046FDF7B3FC0296C1
:1040100001950DF1170300932B460022182120462D
:10402000FDF75AFD9DF81710104801F0F7F94FF40D
:104030007A70FEF777FB0E492046FEF7DBFD0D4A4E
:104040000D492046FEF7A4FE4FF47A70FEF76AFB96
:104050000020BAE7DC8E0008FC8E00081C8F0008E8
:10406000EC0200201C0300204C030020488F0008B5
:1040700084030020980300207803002000B52DED74
:10408000108B91B0F0EE40CAB0EE60CAF0EE41BACB
:10409000CDED0A1A8DED0B2ACDED0C2AB0EE43BA08
:1040A000F0EE63AAF0EE44DA294BD3ED009A93EDDB
:1040B000019AD3ED028A93ED038A39EEA9AA39EE6B
:1040C000091A8DED001A78EEA8EA78EE080ACDED0F
:1040D000010A68EE8A7ACDED027A68EE2E6ACDED9D
:1040E000036A29EEA9FA69EE894ACDED044A69EE20
:1040F000A87ACDED057A29EE884A8DED064A29EE9B
:1041000009DA29EE285A8DED075A29EE083A8DED85
:10411000083A28EEA8EA68EE883ACDED093A68EE4A
:1041200008FA60EE007A2CEE0C0A77EE807A2BEE1D
:10413000AB0A37EE800A03F051FBB5EE400AF1EE10
:1041400010FA07D111B0BDEC108B5DF804FB00BF75
:1041500014000020F7EE007A87EE801A2CEE810A18
:104160008DED0D0A2CEE01CA8DED0ECA6BEE81BAF3
:104170006BEE0B7A2AEEAA0A77EE807A2DEEAD0A64
:1041800037EE800A03F02AFBB5EE400AF1EE10FA92
:10419000D8D0B7EE00CA8CEE004A2BEE04BA6AEE15
:1041A00084AA6DEE84DA6AEE0B5A2AEE2ACA2AEE47
:1041B0002D7A9DED001A61EE0BCA2FEE0B0A68EE08
:1041C0000C7A30EE670A68EE877A30EE270A6DEED9
:1041D0000B7A30EE270A61EE2A7A67EEA87A30EE83
:1041E000270A61EE2D7A67EE887A30EE270A6EEEA6
:1041F0000B7A30EE670A6FEE8B7A30EE670ACDED00
:104200000F5A68EE257A6FEE2A6A77EEA67A29EEC3
:10421000077A77EEC77A28EEAC7A77EE877A2DEEBA
:104220002A7A77EEC77A2EEE2A7A77EE877A2EEE02
:10423000AD7A27EE087A77EE877A2FEEAA7A77EEB4
:10424000C77A20EE000A67EEA77A30EE270A03F05D
:10425000C5FADDED0F5A65EEE87A29EE0CCA77EE65
:104260008C7A2FEE2DFA77EE8F7A68EE2CCA77EEE5
:10427000AC7A6DEE2DCA77EEEC7A2EEEAA7A27EEA6
:10428000087A77EE877A2EEE2D7A77EEC77A2FEEC0
:10429000AD7A77EE877A30EE006A77EEA75A9DED19
:1042A000083A73EE03CA9DED027A7CEEC7CA9DED13
:1042B0000D7A7CEEC7CA6EEEEC3ADDED044A34EEC0
:1042C000A4CADDED036A3CEE26CA9DED0E7A3CEEF3
:1042D00047CA9DED001A2CEE017A73EE873A28EE5C
:1042E000A77AB6EE00FA7FEE4E6A76EEEF6A66EED9
:1042F000806ADDED052A73EE62FA6FEEA7FA76EEBC
:10430000AF6A36EECBBA67EE0BFA73EEEF3A20EEF9
:10431000484A69EE276A34EE264A9DED075ADDEDDC
:1043200006FA35EE6F5A25EE005ADDED09FA74EE05
:10433000AF4A64EEA74A35EE245A75EE6AAA64EED7
:104340002AFA73EEAF3A28EE804A32EE835A25EE0F
:10435000005A7FEE4D4A74EECE4A64EEA74A35EE1F
:10436000245A75EE6DDA64EE2DFA73EEAFFADDEDD8
:10437000010A6CEEA04A2CEE0A5A34EE855AF1EE90
:10438000004A69EE243A3DEE0DDAB7EE003A33EE1C
:104390004DDA3EEE0EEA3DEE4EEA7EEE6BBA63EE8D
:1043A000AB3A75EE633A28EE275A2BEE05DA73EE38
:1043B0008D3A69EEA77A34EE274A2AEE844A33EE24
:1043C00084DA28EE003A29EE254A33EE443A2DEEFF
:1043D000833A3DEE03DA2AEE6CAA2CEE204A3AEE3E
:1043E00004AA68EEA44A6BEEA4BA3AEE6BAA66EE93
:1043F000684A74EEE77A6BEE277A3AEE27AA69EEFE
:10440000007A35EE275A2AEE855A3AEE05AA29EEA9
:10441000805A68EEA55A75EE655A6DEEA55A3AEEC9
:1044200025AA6CEE81CA2CEE2ECA3CEE8CCA26EE72
:10443000486A76EE866A2BEE26BA3CEE0BBA20EE80
:10444000690A37EE000A6AEE80AA7BEE2AAA6DEEB0
:10445000A7DA7AEEADDA6FEEAF7A2DEE0D0A77EECF
:10446000807A2AEE0A0A77EE807A2DEEAD0A37EED0
:10447000800A03F0B3F9F7EE00AACAEE807A6FEE75
:10448000A7FA2DEE27DA2AEE27AA6DEEA7DA9DED20
:104490000A6A69EE467ADDED0B5A28EEA57A77EEC8
:1044A000C77A9DED0C5A28EE057A77EEC77A67EE4B
:1044B0008F7A374BD3ED006A66EEAFFA77EEEFFAFC
:1044C00069EE867A28EE857A77EE877A28EE257A65
:1044D00077EEC77A67EE8F7A26EE8DDA37EECDDA91
:1044E00029EEA57A69EE057A37EE677A68EE067AE4
:1044F00037EE277A27EE0F7A26EE8AAA37EE4A7A27
:1045000069EE851A29EE252A71EE821A68EE867AFE
:1045100071EEE71A21EE8FFA66EEADDA7FEE6DDA14
:104520001C4BD3ED007A67EEAFFA7FEEA99A27EE27
:104530008DDA3DEE099A27EE877A77EE288A67EEC4
:10454000ADDA3DEE888A69EEA97A29EE090A77EE9E
:10455000807A28EEA80A77EE807A28EE080A37EEED
:10456000800A03F03BF9CAEE807A69EEA79A0A4BFB
:10457000C3ED009A29EE279A83ED019A28EEA77AD7
:1045800083ED027A28EE278A83ED038ADAE500BFFD
:10459000100000203C030020140000200000000058
:1045A0002DE9F0432DED068B87B005460C466423BC
:1045B0000293012301930DF1170200923A22D021B8
:1045C000FDF78AFA9DF8173013F0010F40F078815B
:1045D000FEF7A2F89E4B18609E4A1368C31A07EEB6
:1045E000903AF8EE677ADFED9C6A87EEA67A9B4BED
:1045F00083ED007A10609A4BD3ED007A77EE877ADC
:10460000C3ED007A974B1868FBF7BEFF8CA3D3E984
:104610000023FCF711F80022934BFCF737F906460C
:104620000F46924B1868FBF7AFFF85A3D3E9002331
:10463000FCF702F800228C4BFCF728F980468946EB
:104640008B4B1868FBF7A0FF7DA3D3E90023FBF792
:10465000F3FF0022844BFCF719F9864B93ED00AA77
:10466000854BD3ED009A854B93ED009AFCF7DCFA6D
:1046700008EE900A40464946FCF7D6FA08EE100AC2
:1046800030463946FCF7D0FAB0EE4A4AF0EE693AC5
:10469000B0EE493AF0EE682AB0EE482A01EE900AF0
:1046A000774B93ED001A774BD3ED000A764B93EDE1
:1046B000000AFFF7E3FC754B93ED010AD3ED027A94
:1046C00020EE277A93ED006AD3ED035A66EE256A51
:1046D00037EE267A37EE077A6D4D85ED007A26EEB5
:1046E000067A20EE004A77EE046A67EEA74A76EE75
:1046F000E46A25EEA55A76EEC56A664EC6ED006AF6
:1047000060EE066A67EEA53A76EEA36A76EEA66AD2
:10471000614FC7ED006A20EE250A67EE867A30EE1B
:10472000670A30EE000A5D4B83ED000A37EE447AEB
:1047300037EE647A35EE077ADFF8789189ED007A02
:1047400003F01EF8B1EE400ADFF8708188ED000A30
:10475000D9ED000A97ED000A03F03EF8504B83EDC7
:10476000000AD6ED000A95ED000A03F035F810EEC8
:10477000106A4C4F87ED000AD8F80000FBF704FFE1
:1047800031A3D3E90023FBF757FFFCF74DFA0546A9
:10479000C8F800003046FBF7F7FE2BA3D3E900234F
:1047A000FBF74AFFFCF740FA07EE900A38609FEDEE
:1047B0003E7A77EE877AC7ED007AF5EEC07AF1EEB1
:1047C00010FA00F13E81364E3068FBF7DDFE1EA385
:1047D000D3E90023FBF730FFFCF726FA30602A4BC1
:1047E000D3ED007A2C4B93ED007A77EE877A2F4B3E
:1047F000C3ED007A234BD3ED007A284B93ED007A7A
:1048000077EE877A2A4BC3ED007A1D4BD3ED007A01
:10481000284B93ED007A77EEC77A274BC3ED007AE9
:10482000204B1B68E3626562A0620D4B00221A6098
:1048300007B0BDEC068BBDE8F08300BFAFF300808E
:104840009109F83592240940321A05D0E8A24C406B
:10485000E80200206403002000007A443C030020AA
:10486000B803002044030020008066404803002075
:1048700060030020AC030020A4030020A803002054
:1048800038030020340300203003002014000020EF
:1048900004030020080300200C0300201003002064
:1048A000B4030020BC030020C3F5B040680300201F
:1048B0006C0300201403002070030020B0030020CC
:1048C000634E31462846FEF70DF9FEF7EBF8B6F9D0
:1048D000003007EE903AF8EEE77A5E4B93ED007AFF
:1048E00067EE877A5C4BC3ED007AB6F9023006EECC
:1048F000903AF8EEE66A67EE266A584AC2ED006A18
:10490000B6F9043006EE903AF8EEE66A27EE267A1B
:10491000534B83ED007AC4ED007A126862601B6825
:10492000A360504E31462846FEF701F9FEF796F88F
:10493000B6F9003006EE903AF8EEE66A4A4BD3ED4F
:10494000007A66EEA76A494BC3ED006AB6F90230F9
:1049500007EE103AB8EEC77A27EE877A444B83ED1C
:10496000007AB6F9043006EE103AB8EEC66A67EE81
:10497000867A404BC3ED007AC4ED036A84ED047A75
:10498000C4ED057A3C4E31462846FEF7F5F8FEF7B1
:104990004FF8B6F9003006EE903AF8EEE66A374B7B
:1049A000D3ED007A66EEA76A354A92ED007A66EE9C
:1049B000876A344B93ED007A76EEC76A3248C0EDD1
:1049C000006AB6F9021007EE101AB8EEC77A27EEA1
:1049D000877A92ED016A27EE067A93ED016A37EE47
:1049E000467A2A4981ED007AB6F9045006EE105A4B
:1049F000B8EEC66A67EE867A92ED026A67EE867A4C
:104A000093ED026A77EEC67A214AC2ED007A214B15
:104A100093ED006A66EE866AC0ED006A93ED016A66
:104A200027EE067A81ED007A93ED026A67EE867AC8
:104A3000C2ED007AC4ED066A84ED077AC4ED087A07
:104A4000C6E59FED157A77EE877AC7ED007ABAE66C
:104A50002803002018030020300300203403002026
:104A600038030020580300204003002044030020A6
:104A700048030020600300209003002074030020FE
:104A80008403002078030020A4030020A803002052
:104A9000AC030020980300200000B443DFF834D0BA
:104AA0000D480E490E4A002302E0D458C450043386
:104AB000C4188C42F9D30B4A0B4C002301E013605D
:104AC0000432A242FBD3FDF7A9FF00F011F8FCF776
:104AD0002BFB70470080002000000020F401002024
:104AE000DC930008F4010020D4030020FEE700005E
:104AF00070B50D4D0D4C641BA4100026A64209D1C3
:104B00000B4D0C4C04F0D8F8641BA4100026A642F0
:104B100005D170BD55F8043B98470136EEE755F8CE
:104B2000043B98470136F2E7D4930008D493000879
:104B3000D4930008D893000802440346934200D15E
:104B4000704703F8011BF9E72DE9FF4755EC104BBF
:104B5000002D0E4619462B46BBBF05F100431D46EE
:104B600000232D230B700D9BDDF830A0914623F020
:104B70002008BCBF22461446B8F1460F05D0B8F154
:104B8000450F00D10136022100E0032103AB019360
:104B900002AB009345EC104B5346324600F018FE32
:104BA000B8F1470F074602D119F0010F22D0B8F132
:104BB000460F07EB060910D13B78302B0AD10022B3
:104BC000002320462946FBF79FFF18B9C6F10106CE
:104BD000CAF80060DAF80030994400220023204629
:104BE0002946FBF791FF08B1CDF80C903022039BCA
:104BF0004B4507D3039B0E9ADB1B3846136004B06A
:104C0000BDE8F087591C03911A70F0E7F7B5034629
:104C10000029B8BF494203F8022BB4BF2D222B2232
:104C2000092942702ADD0DF10704A4460A27A64689
:104C30000A4691FBF7F607FB16153035632A04F197
:104C4000FF340EF8015C3146F1DC3031AEF1020583
:104C500004F8011C441C294661450AD30DF10902E0
:104C6000A2EB0E02654588BF00221344181A03B058
:104C7000F0BD11F8012B04F8012FEDE7302330319E
:104C80008370C170031DF1E72DE9F04F2DED028B0C
:104C90008DB00C46DDF8608016461F46054601F0D3
:104CA0003DFDD0F800A05046FBF7B2FA00230A936E
:104CB00023680593D8F8003094F818B0073323F030
:104CC000070303F10802C8F80020D3E90023C4E970
:104CD0001223D4E9128929F000430793CDF81880F4
:104CE00008EE100A9F4BDDE906014FF0FF32FBF79B
:104CF0003DFF88BBDDE906019A4B4FF0FF32FBF721
:104D000017FF48BB0022002340464946FBF706FF39
:104D100010B12D2384F84330934B9448BBF1470FD7
:104D200094BF9846804603232361059B23F0040229
:104D300022604FF00009009733460BAA214628460F
:104D400000F0D8F9013040F090804FF0FF300DB006
:104D5000BDEC028BBDE8F08F42464B4640464946CB
:104D6000FBF704FF40B14B46002BBCBF2D2384F85A
:104D700043307F487F4BD1E763680BF0DF02069238
:104D80005A1C3FD106236360059B616843F480622F
:104D9000002303930AABCDE901B309AB49EC108BB7
:104DA000009322600DF123032846FFF7CDFE069BFA
:104DB0000999472B804608D1C81C02DB63689942D9
:104DC00041DDABF1020B5FFA8BFBBBF1650F20D825
:104DD00001395A4604F150000991FFF717FF0A9A6A
:104DE0001318012A8146236102DC2268D20701D50B
:104DF000013323619DF82330002B9CD02D2384F8B0
:104E0000433098E7069A472ABED1002BBCD1012334
:104E1000B9E7BBF1660F18D1002963680BDD21618A
:104E200013B92268D00702D501330B442361A16571
:104E30004FF00009DEE713B92268D20701D502332B
:104E4000F4E70123F2E74FF0670B0A9B994205DB79
:104E500023682161D807EAD54B1CE7E70029D4BFB6
:104E6000C1F1020201221344E0E723685A0507D486
:104E70002369424631462846B84701302CD164E7C1
:104E8000BBF1650F40F2E080D4E91201002200235B
:104E9000FBF73AFE002834D0374A01233146284632
:104EA000B84701303FF451AFDDE909239A4202DBF4
:104EB0002368D80710D518EE103A524631462846D6
:104EC000B84701303FF441AF4FF0000804F11A0930
:104ED0000A9B013B434509DC23689B0700F10581E0
:104EE000E0680B9B9842B8BF184630E701234A465A
:104EF00031462846B84701303FF427AF08F1010892
:104F0000E6E7099B002B39DC1B4A01233146284682
:104F1000B84701303FF419AFDDE90923134302D14B
:104F20002368D907D8D518EE103A5246314628469C
:104F3000B84701303FF409AF4FF0000904F11A0AF5
:104F4000099B5B424B4501DC0A9B92E701235246D9
:104F500031462846B84701303FF4F7AE09F1010960
:104F6000EEE700BFFFFFEF7F788F00087C8F00081F
:104F7000848F0008808F0008888F00080A9AA36D2C
:104F80009A42A8BF1A46002A914637DC4FF0000B20
:104F900029EAE97904F11A02A36D0593A3EB090349
:104FA0005B4533DCDDE909239A423BDB2368DA0702
:104FB00038D40A9B059A09999A1AA3EB01099145DD
:104FC000A8BF9146B9F1000F35DC4FF0000829EA7F
:104FD000E97904F11A0ADDE909239B1AA3EB090315
:104FE00043457FF779AF0123524631462846B847FB
:104FF00001303FF4AAAE08F10108ECE71346314650
:1050000042462846B8470130C0D19EE601233146CA
:1050100028460592B84701303FF497AE059A0BF148
:10502000010BB9E718EE103A524631462846B84708
:105030000130BED189E6059A4B46424431462846A6
:10504000B8470130C1D180E60A9A012A01DCDB07AA
:1050500038D50123424631462846B84701303FF44F
:1050600074AE18EE103A524631462846B847013021
:105070003FF46BAED4E9120100220023FBF744FD9C
:10508000D8B90A9B08F10102013B31462846B847CE
:1050900001300ED159E60123524631462846B84721
:1050A00001303FF452AE08F101080A9B013B434531
:1050B000F1DC4B4604F15002DCE64FF0000804F14D
:1050C0001A0AF2E701234246DFE701234A46314646
:1050D0002846B84701303FF438AE08F10108E368CC
:1050E0000B995B1A4345F0DCFAE64FF0000804F137
:1050F0001909F4E72DE9F047164699468A680B69C5
:10510000DDF820809342B8BF1346336091F8432006
:1051100007460C460AB1013333602368990642BF43
:10512000336802333360256815F0060506D104F1B3
:10513000190AE36832689B1AAB4226DC94F84320D4
:10514000131E226818BF012392062BD404F14302D8
:1051500049463846C04701301ED02368E5683268AA
:1051600003F00603042B08BFAD1AA36822690CBF25
:1051700025EAE57500259342C4BF9B1AED18002669
:105180001A34B5421AD1002008E00123524649469C
:105190003846C047013003D14FF0FF30BDE8F087FB
:1051A0000135C6E7E1185A1C302081F8430022443B
:1051B00094F8451082F843100233C7E701232246D2
:1051C00049463846C0470130E6D00136D9E70000ED
:1051D0002DE9FF470F7E0C9D782F914680460C46A7
:1051E0009A4601F1430207D8622F0AD8002F00F037
:1051F000D880582F00F0A38004F1420584F8427053
:105200003AE0A7F16303152BF6D801A151F823F07A
:10521000695200087D520008F9510008F951000850
:10522000F9510008F95100087D520008F9510008B1
:10523000F9510008F9510008F95100088953000894
:10524000AD5200086B530008F9510008F9510008ED
:10525000AB530008F9510008AD520008F95100089D
:10526000F9510008735300082B681A1D1B682A6047
:1052700004F1420584F842300123A3E02068296844
:10528000060601F104030AD50E682B60002E03DA2E
:105290002D23764284F843305E480A2319E00E68D5
:1052A0002B6010F0400F18BF36B2EFE72B68206874
:1052B000191D2960010601D51E6802E04606FBD5CE
:1052C0001E8854486F2F0CBF08230A23002184F83E
:1052D00043106568A560002DA2BF216821F004017C
:1052E00021600EB9002D4DD01546B6FBF3F103FB3E
:1052F0001167C75D05F8017D3746BB420E46F4D9FC
:10530000082B0BD12368DE0708D523696168994211
:10531000DEBF302305F8013C05F1FF35521B226149
:10532000CDF800A04B4603AA21464046FFF7E2FE17
:1053300001304CD14FF0FF3004B0BDE8F087354864
:1053400081F845702968236851F8046B29601D06AF
:1053500014D5DF0744BF43F0200323601EB9236840
:1053600023F0200323601023B0E7236843F02003D9
:1053700023607823284884F84530E3E7590648BF7E
:10538000B6B2E6E71546BBE72B6826686169181DCB
:10539000286035061B6801D5196002E07006FBD550
:1053A0001980002323611546BAE72B681A1D2A606D
:1053B0001D68626800212846FAF732FF08B1401BD9
:1053C000606063682361002384F84330A8E72369A1
:1053D0002A4649464046D0470130ABD023689B0758
:1053E00013D4E068039B9842B8BF1846A4E7012392
:1053F000324649464046D04701309BD00135E368EC
:1054000003995B1AAB42F2DCEBE7002504F11906C5
:10541000F5E700BF8A8F00089B8F00080FB40A4B86
:1054200013B51C6824B1A36913B9204601F0D8F85C
:1054300005AB049AA1680193204601F095FE02B0E5
:10544000BDE8104004B070472400002070B50E463F
:10545000054618B183690BB901F0C2F8AB69AC68B5
:1054600013B9284601F0BCF82C4B9C4220D16C6843
:10547000636EDB0705D4A389980502D4A06D01F003
:1054800052F9A38919071DD52369DBB1013EA36831
:1054900016F8011F013BA36039BB002B38DA224606
:1054A0000A21284600F048F8013011D00A2511E001
:1054B0001B4B9C4201D1AC68DAE71A4B9C4208BFF7
:1054C000EC68D5E72146284600F088F80028DDD0B2
:1054D0004FF0FF35636EDA0705D4A3899B0502D42C
:1054E000A06D01F021F9284670BD002B04DAA269F5
:1054F0009A4206DC0A2904D023685A1C22601970DB
:10550000C5E72246284600F017F80130BFD1DFE793
:1055100023680A255A1C22601D70DBE78090000872
:10552000A090000860900008024B01461868FFF741
:105530008DBF00BF24000020F8B50E461446054676
:1055400018B183690BB901F04BF8214B9C422BD168
:105550006C68A369A360A3891A072FD523696BB36D
:1055600023692068C01A6369F6B28342374604DCB7
:105570002146284600F0A0FF30BBA368013BA36092
:1055800023685A1C22601E7063690130834204D074
:10559000A389DB0706D50A2E04D12146284600F050
:1055A0008BFF88B93846F8BD0A4B9C4201D1AC68E4
:1055B000CFE7094B9C4208BFEC68CAE72146284662
:1055C00000F00CF80028CBD04FF0FF37EAE700BF1F
:1055D00080900008A090000860900008324B70B5E1
:1055E0001D6806460C4625B1AB6913B9284600F084
:1055F000F7FF2E4B9C420FD16C68A389B4F90C20A5
:1056000019072CD4DD0611D40923336042F040037E
:10561000A3814FF0FF303EE0254B9C4201D1AC68A6
:10562000EBE7244B9C4208BFEC68E6E7580712D52D
:10563000616B41B104F14403994202D0304601F05C
:1056400089FC00236363A38923F02403A38100233F
:10565000636023692360A38943F00803A38123695E
:105660004BB9A38903F42073B3F5007F03D021461F
:10567000304601F07FF8A089B4F90C2010F0010346
:105680000AD00023A36063695B42A361236943B925
:1056900010F08000BAD170BD810758BF6369A36064
:1056A000F4E70020F7E700BF240000208090000806
:1056B000A0900008609000082DE9F74F03690C697D
:1056C000A3420746C0F28180013C01F1140800F1B9
:1056D000140505EB8403019358F8243055F8242071
:1056E00001339A424FEA840B08EB8409B2FBF3F6CC
:1056F00031D34FF0000E4046AC46F24650F8042B32
:1057000093B206FB03E34FEA134E9BB2AAEB0303EB
:10571000DCF800A0120C13FA8AF306FB02E20093F5
:10572000009B4FEA124E92B2C2EB1A4202EB2342A6
:10573000BDF80030814543EA02434CF8043B4FEA90
:10574000224ADBD255F80B302BB9019B043B9D421A
:105750001A462ED33C61384601F0E4FA002824DBD7
:10576000013628464FF0000C58F8042BD0F800E022
:1057700093B2ACEB0303120C13FA8EF3C2EB1E428E
:1057800002EB23429BB243EA0243C14540F8043B8B
:105790004FEA224CE8D255F8242005EB840322B9C5
:1057A000043B9D421A460AD33C61304603B0BDE833
:1057B000F08F1268043B002ACCD1013CC7E7126885
:1057C000043B002AF0D1013CEBE70020EEE70000AB
:1057D0002DE9F04F2DED048B57EC106B93B0456A1B
:1057E000DDF88080069110EE10AA044609920C9311
:1057F000BB4675B9102000F0FDFF0246606220B97B
:10580000A74BEA21A74801F045FEC0E90155056014
:10581000C560636A196851B15A684A6001239340B0
:105820008B60204601F03CF8636A00221A603B1E40
:10583000AABF002323F0004BC8F800309A4BBCBF2E
:105840000122C8F8002033EA0B031BD10C9A42F264
:105850000F731360CBF31303334300F09285219B46
:1058600063B9924B22E0924B01930833219A136063
:10587000019813B0BDEC048BBDE8F08F8B4B019306
:105880000333F3E70022002350465946FBF73CF967
:105890004BEC19AB804658B10C9A01231360219B45
:1058A000002B00F06B8583481860431E0193DFE7EF
:1058B0004BEC10AB10AA11A9204601F0D9FACBF39A
:1058C0000A5508EE100A002D00F0848019EE903A77
:1058D000C3F3130343F07F57564647F44017A5F22E
:1058E000FF35CDF83880744B002230463946FAF740
:1058F000EBFC65A3D3E90023FAF79EFE64A3D3E98A
:105900000023FAF7E3FC064628460F46FAF72AFE7C
:1059100061A3D3E90023FAF78FFE02460B46304617
:105920003946FAF7D3FC06460F46FBF735F9002255
:105930000090002330463946FBF7F0F850B100984C
:10594000FAF710FE32463B46FBF7DEF810B9009B33
:10595000013B0093009B162B5AD8009A574B03EB40
:10596000C203D3E9002351EC190BFBF7D7F8002849
:1059700050D0009B013B009300230B93109B5D1BB9
:105980006B1E059345BFC5F101030493002300235B
:105990004CBF05930493009B002B3DDB059B009AB5
:1059A0000A921344059300230793069B092B00F2E8
:1059B0008980052BC4BF043B0693069BA3F1020319
:1059C000CCBF00250125032B00F28780DFE803F020
:1059D0002D3A3859DDE910531D4405F23243202B8E
:1059E000C1BFC3F1400305F212400BFA03F326FADC
:1059F00000F0DABFC3F1200306FA03F01843FAF708
:105A0000A1FD01230646A1F1F877013D0E936AE757
:105A10000123B2E70B90B1E7049B009A9B1A049311
:105A20005342079300230A93BFE700230893099B7F
:105A3000002B55DC0123CDE902331A4609920CE014
:105A40000123F3E70023099A0893009B1344029370
:105A50000133012B0393B8BF0123606A0022426027
:105A6000042202F114069E4241683DD9204600F00E
:105A7000D7FE019000283BD1114B02464FF4D5715F
:105A8000C0E60123DFE700BF61436F63A787D23F12
:105A9000B3C8608B288AC63FFB799F501344D33F1D
:105AA000B98F0008D08F00080000F07FB58F000884
:105AB000AC8F0008898F00080000F83F689100084B
:105AC0004E90000801250023069308954FF0FF3300
:105AD000CDE9023300221223B0E701230893F5E752
